{
  "contractName": "Item",
  "abi": [
    {
      "inputs": [
        {
          "internalType": "uint256",
          "name": "_index",
          "type": "uint256"
        },
        {
          "internalType": "uint256",
          "name": "_weiPrice",
          "type": "uint256"
        },
        {
          "internalType": "contract ItemManager",
          "name": "_itemManager",
          "type": "address"
        }
      ],
      "stateMutability": "nonpayable",
      "type": "constructor"
    },
    {
      "inputs": [],
      "name": "index",
      "outputs": [
        {
          "internalType": "uint256",
          "name": "",
          "type": "uint256"
        }
      ],
      "stateMutability": "view",
      "type": "function"
    },
    {
      "inputs": [],
      "name": "pricePaid",
      "outputs": [
        {
          "internalType": "uint256",
          "name": "",
          "type": "uint256"
        }
      ],
      "stateMutability": "view",
      "type": "function"
    },
    {
      "inputs": [],
      "name": "weiPrice",
      "outputs": [
        {
          "internalType": "uint256",
          "name": "",
          "type": "uint256"
        }
      ],
      "stateMutability": "view",
      "type": "function"
    },
    {
      "stateMutability": "payable",
      "type": "receive"
    }
  ],
  "bytecode": "0x608060405234801561001057600080fd5b506040516104b43803806104b48339818101604052606081101561003357600080fd5b81019080805190602001909291908051906020019092919080519060200190929190505050826000819055508160028190555080600360006101000a81548173ffffffffffffffffffffffffffffffffffffffff021916908373ffffffffffffffffffffffffffffffffffffffff1602179055505050506103fb806100b96000396000f3fe6080604052600436106100385760003560e01c80632986c0e51461030457806389794d001461032f578063e29b9e971461035a576102ff565b366102ff5760025434146100b4576040517f08c379a000000000000000000000000000000000000000000000000000000000815260040180806020018281038252601e8152602001807f5061727469616c207061796d656e7473206e6f7420737570706f72746564000081525060200191505060405180910390fd5b60006001541461012c576040517f08c379a00000000000000000000000000000000000000000000000000000000081526004018080602001828103825260148152602001807f4974656d206973207061696420616c726561647900000000000000000000000081525060200191505060405180910390fd5b346001600082825401925050819055506000600360009054906101000a900473ffffffffffffffffffffffffffffffffffffffff1673ffffffffffffffffffffffffffffffffffffffff1634600054604051602401808281526020019150506040516020818303038152906040527f800fb83f000000000000000000000000000000000000000000000000000000007bffffffffffffffffffffffffffffffffffffffffffffffffffffffff19166020820180517bffffffffffffffffffffffffffffffffffffffffffffffffffffffff83818316178352505050506040518082805190602001908083835b6020831061023b5780518252602082019150602081019050602083039250610218565b6001836020036101000a03801982511681845116808217855250505050505090500191505060006040518083038185875af1925050503d806000811461029d576040519150601f19603f3d011682016040523d82523d6000602084013e6102a2565b606091505b50509050806102fc576040517f08c379a000000000000000000000000000000000000000000000000000000000815260040180806020018281038252602e815260200180610398602e913960400191505060405180910390fd5b50005b600080fd5b34801561031057600080fd5b50610319610385565b6040518082815260200191505060405180910390f35b34801561033b57600080fd5b5061034461038b565b6040518082815260200191505060405180910390f35b34801561036657600080fd5b5061036f610391565b6040518082815260200191505060405180910390f35b60005481565b60015481565b6002548156fe546865207472616e73616374696f6e207761736e2774207375636365737366756c2c2063616e63656c6c696e672ea26469706673582212208b147521494697941c039713648899d9e0cc649e8b8ac0595eba7e23621f921664736f6c634300060c0033",
  "immutableReferences": {},
  "source": "// SPDX-License-Identifier: GPL-3.0\n\npragma solidity ^0.6.1;\n\nimport \"./ItemManager.sol\";\n\ncontract Item {\n    uint256 public index;\n    uint256 public pricePaid;\n    uint256 public weiPrice;\n\n    ItemManager parentContract;\n\n    constructor(\n        uint256 _index,\n        uint256 _weiPrice,\n        ItemManager _itemManager\n    ) public {\n        index = _index;\n        weiPrice = _weiPrice;\n        parentContract = _itemManager;\n    }\n\n    receive() external payable {\n        require(msg.value == weiPrice, \"Partial payments not supported\");\n        require(pricePaid == 0, \"Item is paid already\");\n\n        pricePaid += msg.value;\n        (bool success, ) = address(parentContract).call.value(msg.value)(\n            abi.encodeWithSignature(\"triggerPayment(uint256)\", index)\n        );\n\n        require(success, \"The transaction wasn't successful, cancelling.\");\n    }\n}\n",
  "sourcePath": "/Users/matiasmorales/Desktop/supply-chain/contracts/Item.sol",
  "compiler": {
    "name": "solc",
    "version": "0.6.12+commit.27d51765.Emscripten.clang"
  },
  "schemaVersion": "3.4.7",
  "updatedAt": "2022-05-20T03:46:53.701Z",
  "devdoc": {
    "kind": "dev",
    "methods": {},
    "version": 1
  },
  "userdoc": {
    "kind": "user",
    "methods": {},
    "version": 1
  }
}