{
  "contractName": "ItemManager",
  "abi": [
    {
      "anonymous": false,
      "inputs": [
        {
          "indexed": false,
          "internalType": "uint256",
          "name": "index",
          "type": "uint256"
        },
        {
          "indexed": false,
          "internalType": "uint256",
          "name": "state",
          "type": "uint256"
        },
        {
          "indexed": false,
          "internalType": "address",
          "name": "itemAddress",
          "type": "address"
        }
      ],
      "name": "SupplyChainStep",
      "type": "event"
    },
    {
      "inputs": [],
      "name": "isOwner",
      "outputs": [
        {
          "internalType": "bool",
          "name": "",
          "type": "bool"
        }
      ],
      "stateMutability": "view",
      "type": "function",
      "constant": true
    },
    {
      "inputs": [
        {
          "internalType": "uint256",
          "name": "",
          "type": "uint256"
        }
      ],
      "name": "items",
      "outputs": [
        {
          "internalType": "contract Item",
          "name": "item",
          "type": "address"
        },
        {
          "internalType": "string",
          "name": "id",
          "type": "string"
        },
        {
          "internalType": "uint256",
          "name": "price",
          "type": "uint256"
        },
        {
          "internalType": "enum ItemManager.ItemState",
          "name": "state",
          "type": "uint8"
        }
      ],
      "stateMutability": "view",
      "type": "function",
      "constant": true
    },
    {
      "inputs": [
        {
          "internalType": "string",
          "name": "_id",
          "type": "string"
        },
        {
          "internalType": "uint256",
          "name": "_price",
          "type": "uint256"
        }
      ],
      "name": "createItem",
      "outputs": [],
      "stateMutability": "nonpayable",
      "type": "function"
    },
    {
      "inputs": [
        {
          "internalType": "uint256",
          "name": "_index",
          "type": "uint256"
        }
      ],
      "name": "triggerPayment",
      "outputs": [],
      "stateMutability": "payable",
      "type": "function",
      "payable": true
    },
    {
      "inputs": [
        {
          "internalType": "uint256",
          "name": "_index",
          "type": "uint256"
        }
      ],
      "name": "triggerDelivery",
      "outputs": [],
      "stateMutability": "nonpayable",
      "type": "function"
    }
  ],
  "bytecode": "0x608060405234801561001057600080fd5b50336000806101000a81548173ffffffffffffffffffffffffffffffffffffffff021916908373ffffffffffffffffffffffffffffffffffffffff16021790555061101f806100606000396000f3fe60806040526004361061004a5760003560e01c8063800fb83f1461004f5780638c5517421461007d5780638f32d59b1461014f578063bfb231d21461017c578063cd31831e14610266575b600080fd5b61007b6004803603602081101561006557600080fd5b81019080803590602001909291905050506102a1565b005b34801561008957600080fd5b5061014d600480360360408110156100a057600080fd5b81019080803590602001906401000000008111156100bd57600080fd5b8201836020820111156100cf57600080fd5b803590602001918460018302840111640100000000831117156100f157600080fd5b91908080601f016020809104026020016040519081016040528093929190818152602001838380828437600081840152601f19601f820116905080830192505050505050509192919290803590602001909291905050506104b9565b005b34801561015b57600080fd5b50610164610714565b60405180821515815260200191505060405180910390f35b34801561018857600080fd5b506101b56004803603602081101561019f57600080fd5b810190808035906020019092919050505061076b565b604051808573ffffffffffffffffffffffffffffffffffffffff168152602001806020018481526020018360028111156101eb57fe5b8152602001828103825285818151815260200191508051906020019080838360005b8381101561022857808201518184015260208101905061020d565b50505050905090810190601f1680156102555780820380516001836020036101000a031916815260200191505b509550505050505060405180910390f35b34801561027257600080fd5b5061029f6004803603602081101561028957600080fd5b8101908080359060200190929190505050610860565b005b3460016000838152602001908152602001600020600201541461032c576040517f08c379a000000000000000000000000000000000000000000000000000000000815260040180806020018281038252601c8152602001807f4f6e6c792066756c6c207061796d656e74732061636365707465642e0000000081525060200191505060405180910390fd5b6000600281111561033957fe5b6001600083815260200190815260200160002060030160009054906101000a900460ff16600281111561036857fe5b146103be576040517f08c379a0000000000000000000000000000000000000000000000000000000008152600401808060200182810382526023815260200180610fc76023913960400191505060405180910390fd5b600180600083815260200190815260200160002060030160006101000a81548160ff021916908360028111156103f057fe5b02179055507fa4035636e99f06b7651a604c1019fa4e8779fe68ef27eeb74dff2de348f6199b816001600084815260200190815260200160002060030160009054906101000a900460ff16600281111561044657fe5b6001600085815260200190815260200160002060000160009054906101000a900473ffffffffffffffffffffffffffffffffffffffff16604051808481526020018381526020018273ffffffffffffffffffffffffffffffffffffffff168152602001935050505060405180910390a150565b6104c1610714565b610533576040517f08c379a00000000000000000000000000000000000000000000000000000000081526004018080602001828103825260168152602001807f596f7520617265206e6f7420746865206f776e65722e0000000000000000000081525060200191505060405180910390fd5b6000600254823060405161054690610a68565b808481526020018381526020018273ffffffffffffffffffffffffffffffffffffffff1681526020019350505050604051809103906000f080158015610590573d6000803e3d6000fd5b5090508060016000600254815260200190815260200160002060000160006101000a81548173ffffffffffffffffffffffffffffffffffffffff021916908373ffffffffffffffffffffffffffffffffffffffff160217905550826001600060025481526020019081526020016000206001019080519060200190610616929190610a75565b508160016000600254815260200190815260200160002060020181905550600060016000600254815260200190815260200160002060030160006101000a81548160ff0219169083600281111561066957fe5b02179055507fa4035636e99f06b7651a604c1019fa4e8779fe68ef27eeb74dff2de348f6199b60025460016000600254815260200190815260200160002060030160009054906101000a900460ff1660028111156106c357fe5b83604051808481526020018381526020018273ffffffffffffffffffffffffffffffffffffffff168152602001935050505060405180910390a1600260008154809291906001019190505550505050565b60008060009054906101000a900473ffffffffffffffffffffffffffffffffffffffff1673ffffffffffffffffffffffffffffffffffffffff163373ffffffffffffffffffffffffffffffffffffffff1614905090565b60016020528060005260406000206000915090508060000160009054906101000a900473ffffffffffffffffffffffffffffffffffffffff1690806001018054600181600116156101000203166002900480601f01602080910402602001604051908101604052809291908181526020018280546001816001161561010002031660029004801561083d5780601f106108125761010080835404028352916020019161083d565b820191906000526020600020905b81548152906001019060200180831161082057829003601f168201915b5050505050908060020154908060030160009054906101000a900460ff16905084565b610868610714565b6108da576040517f08c379a00000000000000000000000000000000000000000000000000000000081526004018080602001828103825260168152602001807f596f7520617265206e6f7420746865206f776e65722e0000000000000000000081525060200191505060405180910390fd5b600160028111156108e757fe5b6001600083815260200190815260200160002060030160009054906101000a900460ff16600281111561091657fe5b1461096c576040517f08c379a0000000000000000000000000000000000000000000000000000000008152600401808060200182810382526023815260200180610fc76023913960400191505060405180910390fd5b60026001600083815260200190815260200160002060030160006101000a81548160ff0219169083600281111561099f57fe5b02179055507fa4035636e99f06b7651a604c1019fa4e8779fe68ef27eeb74dff2de348f6199b816001600084815260200190815260200160002060030160009054906101000a900460ff1660028111156109f557fe5b6001600085815260200190815260200160002060000160009054906101000a900473ffffffffffffffffffffffffffffffffffffffff16604051808481526020018381526020018273ffffffffffffffffffffffffffffffffffffffff168152602001935050505060405180910390a150565b6104b480610b1383390190565b828054600181600116156101000203166002900490600052602060002090601f016020900481019282601f10610ab657805160ff1916838001178555610ae4565b82800160010185558215610ae4579182015b82811115610ae3578251825591602001919060010190610ac8565b5b509050610af19190610af5565b5090565b5b80821115610b0e576000816000905550600101610af6565b509056fe608060405234801561001057600080fd5b506040516104b43803806104b48339818101604052606081101561003357600080fd5b81019080805190602001909291908051906020019092919080519060200190929190505050826000819055508160028190555080600360006101000a81548173ffffffffffffffffffffffffffffffffffffffff021916908373ffffffffffffffffffffffffffffffffffffffff1602179055505050506103fb806100b96000396000f3fe6080604052600436106100385760003560e01c80632986c0e51461030457806389794d001461032f578063e29b9e971461035a576102ff565b366102ff5760025434146100b4576040517f08c379a000000000000000000000000000000000000000000000000000000000815260040180806020018281038252601e8152602001807f5061727469616c207061796d656e7473206e6f7420737570706f72746564000081525060200191505060405180910390fd5b60006001541461012c576040517f08c379a00000000000000000000000000000000000000000000000000000000081526004018080602001828103825260148152602001807f4974656d206973207061696420616c726561647900000000000000000000000081525060200191505060405180910390fd5b346001600082825401925050819055506000600360009054906101000a900473ffffffffffffffffffffffffffffffffffffffff1673ffffffffffffffffffffffffffffffffffffffff1634600054604051602401808281526020019150506040516020818303038152906040527f800fb83f000000000000000000000000000000000000000000000000000000007bffffffffffffffffffffffffffffffffffffffffffffffffffffffff19166020820180517bffffffffffffffffffffffffffffffffffffffffffffffffffffffff83818316178352505050506040518082805190602001908083835b6020831061023b5780518252602082019150602081019050602083039250610218565b6001836020036101000a03801982511681845116808217855250505050505090500191505060006040518083038185875af1925050503d806000811461029d576040519150601f19603f3d011682016040523d82523d6000602084013e6102a2565b606091505b50509050806102fc576040517f08c379a000000000000000000000000000000000000000000000000000000000815260040180806020018281038252602e815260200180610398602e913960400191505060405180910390fd5b50005b600080fd5b34801561031057600080fd5b50610319610385565b6040518082815260200191505060405180910390f35b34801561033b57600080fd5b5061034461038b565b6040518082815260200191505060405180910390f35b34801561036657600080fd5b5061036f610391565b6040518082815260200191505060405180910390f35b60005481565b60015481565b6002548156fe546865207472616e73616374696f6e207761736e2774207375636365737366756c2c2063616e63656c6c696e672ea26469706673582212208b147521494697941c039713648899d9e0cc649e8b8ac0595eba7e23621f921664736f6c634300060c00334974656d2069732066757468657220696e2074686520737570706c7920636861696e2ea2646970667358221220c408eeff96626b8ddf6e6d561c8ec269b5430ee5fa521f180f6b7037a389df9664736f6c634300060c0033",
  "immutableReferences": {},
  "source": "// SPDX-License-Identifier: GPL-3.0\n\npragma solidity ^0.6.1;\n\nimport \"./Ownable.sol\";\nimport \"./Item.sol\";\n\ncontract ItemManager is Ownable {\n    enum ItemState {\n        Created,\n        Paid,\n        Delivered\n    }\n\n    struct S_Item {\n        Item item;\n        string id;\n        uint256 price;\n        ItemState state;\n    }\n\n    mapping(uint256 => S_Item) public items;\n\n    uint256 itemIndex;\n\n    event SupplyChainStep(uint256 index, uint256 state, address itemAddress);\n\n    function createItem(string memory _id, uint256 _price) public onlyOwner {\n        Item item = new Item(itemIndex, _price, this);\n        items[itemIndex].item = item;\n        items[itemIndex].id = _id;\n        items[itemIndex].price = _price;\n        items[itemIndex].state = ItemState.Created;\n\n        emit SupplyChainStep(\n            itemIndex,\n            uint256(items[itemIndex].state),\n            address(item)\n        );\n        itemIndex++;\n    }\n\n    function triggerPayment(uint256 _index) public payable {\n        require(\n            items[_index].price == msg.value,\n            \"Only full payments accepted.\"\n        );\n        require(\n            items[_index].state == ItemState.Created,\n            \"Item is futher in the supply chain.\"\n        );\n\n        items[_index].state = ItemState.Paid;\n        emit SupplyChainStep(\n            _index,\n            uint256(items[_index].state),\n            address(items[_index].item)\n        );\n    }\n\n    function triggerDelivery(uint256 _index) public onlyOwner {\n        require(\n            items[_index].state == ItemState.Paid,\n            \"Item is futher in the supply chain.\"\n        );\n\n        items[_index].state = ItemState.Delivered;\n        emit SupplyChainStep(\n            _index,\n            uint256(items[_index].state),\n            address(items[_index].item)\n        );\n    }\n}\n",
  "sourcePath": "/Users/matiasmorales/Desktop/supply-chain/contracts/ItemManager.sol",
  "compiler": {
    "name": "solc",
    "version": "0.6.12+commit.27d51765.Emscripten.clang"
  },
  "schemaVersion": "3.4.7",
  "updatedAt": "2022-05-20T14:20:34.977Z",
  "networkType": "ethereum",
  "devdoc": {
    "kind": "dev",
    "methods": {},
    "version": 1
  },
  "userdoc": {
    "kind": "user",
    "methods": {},
    "version": 1
  }
}